{
	"contracts/Vault.sol": {
		"Vault": {
			"abi": [
				{
					"inputs": [],
					"stateMutability": "nonpayable",
					"type": "constructor"
				},
				{
					"inputs": [],
					"name": "AmountNotSpecified",
					"type": "error"
				},
				{
					"inputs": [
						{
							"internalType": "uint256",
							"name": "balance",
							"type": "uint256"
						}
					],
					"name": "InsufficientBalance",
					"type": "error"
				},
				{
					"inputs": [],
					"name": "InvalidPriceDataFeed",
					"type": "error"
				},
				{
					"anonymous": false,
					"inputs": [
						{
							"indexed": true,
							"internalType": "address",
							"name": "user",
							"type": "address"
						},
						{
							"indexed": false,
							"internalType": "uint256",
							"name": "amount",
							"type": "uint256"
						}
					],
					"name": "Deposit",
					"type": "event"
				},
				{
					"anonymous": false,
					"inputs": [
						{
							"indexed": true,
							"internalType": "address",
							"name": "user",
							"type": "address"
						},
						{
							"indexed": true,
							"internalType": "address",
							"name": "tokenAddress",
							"type": "address"
						},
						{
							"indexed": false,
							"internalType": "uint256",
							"name": "amount",
							"type": "uint256"
						}
					],
					"name": "Deposit",
					"type": "event"
				},
				{
					"anonymous": false,
					"inputs": [
						{
							"indexed": true,
							"internalType": "address",
							"name": "user",
							"type": "address"
						},
						{
							"indexed": false,
							"internalType": "uint256",
							"name": "amount",
							"type": "uint256"
						}
					],
					"name": "Withdrawal",
					"type": "event"
				},
				{
					"anonymous": false,
					"inputs": [
						{
							"indexed": true,
							"internalType": "address",
							"name": "user",
							"type": "address"
						},
						{
							"indexed": true,
							"internalType": "address",
							"name": "tokenAddress",
							"type": "address"
						},
						{
							"indexed": false,
							"internalType": "uint256",
							"name": "amount",
							"type": "uint256"
						}
					],
					"name": "Withdrawal",
					"type": "event"
				},
				{
					"inputs": [],
					"name": "deposit",
					"outputs": [],
					"stateMutability": "payable",
					"type": "function"
				},
				{
					"inputs": [
						{
							"internalType": "uint256",
							"name": "ethAmount",
							"type": "uint256"
						}
					],
					"name": "getConvertionRate",
					"outputs": [
						{
							"internalType": "uint256",
							"name": "",
							"type": "uint256"
						}
					],
					"stateMutability": "view",
					"type": "function"
				},
				{
					"inputs": [],
					"name": "getPriceETH_USD",
					"outputs": [
						{
							"internalType": "uint256",
							"name": "",
							"type": "uint256"
						}
					],
					"stateMutability": "view",
					"type": "function"
				},
				{
					"inputs": [],
					"name": "i_owner",
					"outputs": [
						{
							"internalType": "address",
							"name": "",
							"type": "address"
						}
					],
					"stateMutability": "view",
					"type": "function"
				},
				{
					"inputs": [],
					"name": "minUSD",
					"outputs": [
						{
							"internalType": "uint256",
							"name": "",
							"type": "uint256"
						}
					],
					"stateMutability": "view",
					"type": "function"
				},
				{
					"inputs": [],
					"name": "withdraw",
					"outputs": [],
					"stateMutability": "payable",
					"type": "function"
				}
			],
			"devdoc": {
				"kind": "dev",
				"methods": {},
				"version": 1
			},
			"evm": {
				"assembly": "    /* \"contracts/Vault.sol\":357:3109  contract Vault {... */\n  mstore(0x40, 0x80)\n    /* \"contracts/Vault.sol\":588:596  1 * 1e18 */\n  0x0de0b6b3a7640000\n    /* \"contracts/Vault.sol\":564:596  uint256 public minUSD = 1 * 1e18 */\n  0x02\n  sstore\n    /* \"contracts/Vault.sol\":423:474  constructor() {... */\n  callvalue\n  dup1\n  iszero\n  tag_1\n  jumpi\n  0x00\n  dup1\n  revert\ntag_1:\n  pop\n    /* \"contracts/Vault.sol\":457:467  msg.sender */\n  caller\n    /* \"contracts/Vault.sol\":447:454  i_owner */\n  0x00\n  dup1\n    /* \"contracts/Vault.sol\":447:467  i_owner = msg.sender */\n  0x0100\n  exp\n  dup2\n  sload\n  dup2\n  0xffffffffffffffffffffffffffffffffffffffff\n  mul\n  not\n  and\n  swap1\n  dup4\n  0xffffffffffffffffffffffffffffffffffffffff\n  and\n  mul\n  or\n  swap1\n  sstore\n  pop\n    /* \"contracts/Vault.sol\":357:3109  contract Vault {... */\n  dataSize(sub_0)\n  dup1\n  dataOffset(sub_0)\n  0x00\n  codecopy\n  0x00\n  return\nstop\n\nsub_0: assembly {\n        /* \"contracts/Vault.sol\":357:3109  contract Vault {... */\n      mstore(0x40, 0x80)\n      jumpi(tag_1, lt(calldatasize, 0x04))\n      shr(0xe0, calldataload(0x00))\n      dup1\n      0x3ccfd60b\n      eq\n      tag_2\n      jumpi\n      dup1\n      0x3e8cdcda\n      eq\n      tag_3\n      jumpi\n      dup1\n      0xd0e30db0\n      eq\n      tag_4\n      jumpi\n      dup1\n      0xdba6335f\n      eq\n      tag_5\n      jumpi\n      dup1\n      0xdc992aa0\n      eq\n      tag_6\n      jumpi\n      dup1\n      0xe1d1f81b\n      eq\n      tag_7\n      jumpi\n    tag_1:\n      0x00\n      dup1\n      revert\n        /* \"contracts/Vault.sol\":1506:2065  function withdraw() public payable {... */\n    tag_2:\n      tag_8\n      tag_9\n      jump\t// in\n    tag_8:\n      stop\n        /* \"contracts/Vault.sol\":2802:3004  function getConvertionRate(uint256 ethAmount) public view returns (uint256) {... */\n    tag_3:\n      callvalue\n      dup1\n      iszero\n      tag_10\n      jumpi\n      0x00\n      dup1\n      revert\n    tag_10:\n      pop\n      tag_11\n      0x04\n      dup1\n      calldatasize\n      sub\n      dup2\n      add\n      swap1\n      tag_12\n      swap2\n      swap1\n      tag_13\n      jump\t// in\n    tag_12:\n      tag_14\n      jump\t// in\n    tag_11:\n      mload(0x40)\n      tag_15\n      swap2\n      swap1\n      tag_16\n      jump\t// in\n    tag_15:\n      mload(0x40)\n      dup1\n      swap2\n      sub\n      swap1\n      return\n        /* \"contracts/Vault.sol\":1123:1499  function deposit() public payable {... */\n    tag_4:\n      tag_17\n      tag_18\n      jump\t// in\n    tag_17:\n      stop\n        /* \"contracts/Vault.sol\":379:417  address public /* immutable */ i_owner */\n    tag_5:\n      callvalue\n      dup1\n      iszero\n      tag_19\n      jumpi\n      0x00\n      dup1\n      revert\n    tag_19:\n      pop\n      tag_20\n      tag_21\n      jump\t// in\n    tag_20:\n      mload(0x40)\n      tag_22\n      swap2\n      swap1\n      tag_23\n      jump\t// in\n    tag_22:\n      mload(0x40)\n      dup1\n      swap2\n      sub\n      swap1\n      return\n        /* \"contracts/Vault.sol\":564:596  uint256 public minUSD = 1 * 1e18 */\n    tag_6:\n      callvalue\n      dup1\n      iszero\n      tag_24\n      jumpi\n      0x00\n      dup1\n      revert\n    tag_24:\n      pop\n      tag_25\n      tag_26\n      jump\t// in\n    tag_25:\n      mload(0x40)\n      tag_27\n      swap2\n      swap1\n      tag_16\n      jump\t// in\n    tag_27:\n      mload(0x40)\n      dup1\n      swap2\n      sub\n      swap1\n      return\n        /* \"contracts/Vault.sol\":2355:2796  function getPriceETH_USD() public view returns (uint256) {... */\n    tag_7:\n      callvalue\n      dup1\n      iszero\n      tag_28\n      jumpi\n      0x00\n      dup1\n      revert\n    tag_28:\n      pop\n      tag_29\n      tag_30\n      jump\t// in\n    tag_29:\n      mload(0x40)\n      tag_31\n      swap2\n      swap1\n      tag_16\n      jump\t// in\n    tag_31:\n      mload(0x40)\n      dup1\n      swap2\n      sub\n      swap1\n      return\n        /* \"contracts/Vault.sol\":1506:2065  function withdraw() public payable {... */\n    tag_9:\n        /* \"contracts/Vault.sol\":1551:1570  uint256 userBalance */\n      0x00\n        /* \"contracts/Vault.sol\":1573:1587  checkBalance() */\n      tag_33\n        /* \"contracts/Vault.sol\":1573:1585  checkBalance */\n      tag_34\n        /* \"contracts/Vault.sol\":1573:1587  checkBalance() */\n      jump\t// in\n    tag_33:\n        /* \"contracts/Vault.sol\":1551:1587  uint256 userBalance = checkBalance() */\n      swap1\n      pop\n        /* \"contracts/Vault.sol\":1675:1676  0 */\n      0x00\n        /* \"contracts/Vault.sol\":1660:1671  userBalance */\n      dup2\n        /* \"contracts/Vault.sol\":1660:1676  userBalance <= 0 */\n      gt\n        /* \"contracts/Vault.sol\":1657:1722  if(userBalance <= 0) { revert InsufficientBalance(userBalance); } */\n      tag_35\n      jumpi\n        /* \"contracts/Vault.sol\":1707:1718  userBalance */\n      dup1\n        /* \"contracts/Vault.sol\":1687:1719  InsufficientBalance(userBalance) */\n      mload(0x40)\n      0x9266535100000000000000000000000000000000000000000000000000000000\n      dup2\n      mstore\n      0x04\n      add\n      tag_36\n      swap2\n      swap1\n      tag_16\n      jump\t// in\n    tag_36:\n      mload(0x40)\n      dup1\n      swap2\n      sub\n      swap1\n      revert\n        /* \"contracts/Vault.sol\":1657:1722  if(userBalance <= 0) { revert InsufficientBalance(userBalance); } */\n    tag_35:\n        /* \"contracts/Vault.sol\":1828:1829  0 */\n      0x00\n        /* \"contracts/Vault.sol\":1805:1813  balances */\n      0x01\n        /* \"contracts/Vault.sol\":1805:1825  balances[msg.sender] */\n      0x00\n        /* \"contracts/Vault.sol\":1814:1824  msg.sender */\n      caller\n        /* \"contracts/Vault.sol\":1805:1825  balances[msg.sender] */\n      0xffffffffffffffffffffffffffffffffffffffff\n      and\n      0xffffffffffffffffffffffffffffffffffffffff\n      and\n      dup2\n      mstore\n      0x20\n      add\n      swap1\n      dup2\n      mstore\n      0x20\n      add\n      0x00\n      keccak256\n        /* \"contracts/Vault.sol\":1805:1829  balances[msg.sender] = 0 */\n      dup2\n      swap1\n      sstore\n      pop\n        /* \"contracts/Vault.sol\":1849:1861  bool success */\n      0x00\n        /* \"contracts/Vault.sol\":1875:1885  msg.sender */\n      caller\n        /* \"contracts/Vault.sol\":1867:1891  payable(msg.sender).call */\n      0xffffffffffffffffffffffffffffffffffffffff\n      and\n        /* \"contracts/Vault.sol\":1899:1910  userBalance */\n      dup3\n        /* \"contracts/Vault.sol\":1867:1915  payable(msg.sender).call{value: userBalance}(\"\") */\n      mload(0x40)\n      tag_37\n      swap1\n      tag_38\n      jump\t// in\n    tag_37:\n      0x00\n      mload(0x40)\n      dup1\n      dup4\n      sub\n      dup2\n      dup6\n      dup8\n      gas\n      call\n      swap3\n      pop\n      pop\n      pop\n      returndatasize\n      dup1\n      0x00\n      dup2\n      eq\n      tag_41\n      jumpi\n      mload(0x40)\n      swap2\n      pop\n      and(add(returndatasize, 0x3f), not(0x1f))\n      dup3\n      add\n      0x40\n      mstore\n      returndatasize\n      dup3\n      mstore\n      returndatasize\n      0x00\n      0x20\n      dup5\n      add\n      returndatacopy\n      jump(tag_40)\n    tag_41:\n      0x60\n      swap2\n      pop\n    tag_40:\n      pop\n        /* \"contracts/Vault.sol\":1848:1915  (bool success, ) = payable(msg.sender).call{value: userBalance}(\"\") */\n      pop\n      swap1\n      pop\n        /* \"contracts/Vault.sol\":1933:1940  success */\n      dup1\n        /* \"contracts/Vault.sol\":1925:1962  require(success, \"Withdrawal failed\") */\n      tag_42\n      jumpi\n      mload(0x40)\n      0x08c379a000000000000000000000000000000000000000000000000000000000\n      dup2\n      mstore\n      0x04\n      add\n      tag_43\n      swap1\n      tag_44\n      jump\t// in\n    tag_43:\n      mload(0x40)\n      dup1\n      swap2\n      sub\n      swap1\n      revert\n    tag_42:\n        /* \"contracts/Vault.sol\":1997:2007  msg.sender */\n      caller\n        /* \"contracts/Vault.sol\":1986:2021  Withdrawal(msg.sender, userBalance) */\n      0xffffffffffffffffffffffffffffffffffffffff\n      and\n      0x7fcf532c15f0a6db0bd6d0e038bea71d30d808c7d98cb3bf7268a95bf5081b65\n        /* \"contracts/Vault.sol\":2009:2020  userBalance */\n      dup4\n        /* \"contracts/Vault.sol\":1986:2021  Withdrawal(msg.sender, userBalance) */\n      mload(0x40)\n      tag_45\n      swap2\n      swap1\n      tag_16\n      jump\t// in\n    tag_45:\n      mload(0x40)\n      dup1\n      swap2\n      sub\n      swap1\n      log2\n        /* \"contracts/Vault.sol\":1541:2065  {... */\n      pop\n      pop\n        /* \"contracts/Vault.sol\":1506:2065  function withdraw() public payable {... */\n      jump\t// out\n        /* \"contracts/Vault.sol\":2802:3004  function getConvertionRate(uint256 ethAmount) public view returns (uint256) {... */\n    tag_14:\n        /* \"contracts/Vault.sol\":2869:2876  uint256 */\n      0x00\n        /* \"contracts/Vault.sol\":2888:2904  uint256 ethPrice */\n      dup1\n        /* \"contracts/Vault.sol\":2907:2924  getPriceETH_USD() */\n      tag_47\n        /* \"contracts/Vault.sol\":2907:2922  getPriceETH_USD */\n      tag_30\n        /* \"contracts/Vault.sol\":2907:2924  getPriceETH_USD() */\n      jump\t// in\n    tag_47:\n        /* \"contracts/Vault.sol\":2888:2924  uint256 ethPrice = getPriceETH_USD() */\n      swap1\n      pop\n        /* \"contracts/Vault.sol\":2934:2945  uint256 usd */\n      0x00\n        /* \"contracts/Vault.sol\":2973:2977  1e18 */\n      0x0de0b6b3a7640000\n        /* \"contracts/Vault.sol\":2960:2969  ethAmount */\n      dup5\n        /* \"contracts/Vault.sol\":2949:2957  ethPrice */\n      dup4\n        /* \"contracts/Vault.sol\":2949:2969  ethPrice * ethAmount */\n      tag_48\n      swap2\n      swap1\n      tag_49\n      jump\t// in\n    tag_48:\n        /* \"contracts/Vault.sol\":2948:2977  (ethPrice * ethAmount) / 1e18 */\n      tag_50\n      swap2\n      swap1\n      tag_51\n      jump\t// in\n    tag_50:\n        /* \"contracts/Vault.sol\":2934:2977  uint256 usd = (ethPrice * ethAmount) / 1e18 */\n      swap1\n      pop\n        /* \"contracts/Vault.sol\":2994:2997  usd */\n      dup1\n        /* \"contracts/Vault.sol\":2987:2997  return usd */\n      swap3\n      pop\n      pop\n      pop\n        /* \"contracts/Vault.sol\":2802:3004  function getConvertionRate(uint256 ethAmount) public view returns (uint256) {... */\n      swap2\n      swap1\n      pop\n      jump\t// out\n        /* \"contracts/Vault.sol\":1123:1499  function deposit() public payable {... */\n    tag_18:\n        /* \"contracts/Vault.sol\":1183:1184  0 */\n      0x00\n        /* \"contracts/Vault.sol\":1170:1179  msg.value */\n      callvalue\n        /* \"contracts/Vault.sol\":1170:1184  msg.value <= 0 */\n      gt\n        /* \"contracts/Vault.sol\":1167:1213  if(msg.value <= 0) revert AmountNotSpecified() */\n      tag_53\n      jumpi\n        /* \"contracts/Vault.sol\":1193:1213  AmountNotSpecified() */\n      mload(0x40)\n      0xf9acdc6100000000000000000000000000000000000000000000000000000000\n      dup2\n      mstore\n      0x04\n      add\n      mload(0x40)\n      dup1\n      swap2\n      sub\n      swap1\n      revert\n        /* \"contracts/Vault.sol\":1167:1213  if(msg.value <= 0) revert AmountNotSpecified() */\n    tag_53:\n        /* \"contracts/Vault.sol\":1273:1289  uint256 usdValue */\n      0x00\n        /* \"contracts/Vault.sol\":1292:1320  getConvertionRate(msg.value) */\n      tag_54\n        /* \"contracts/Vault.sol\":1310:1319  msg.value */\n      callvalue\n        /* \"contracts/Vault.sol\":1292:1309  getConvertionRate */\n      tag_14\n        /* \"contracts/Vault.sol\":1292:1320  getConvertionRate(msg.value) */\n      jump\t// in\n    tag_54:\n        /* \"contracts/Vault.sol\":1273:1320  uint256 usdValue = getConvertionRate(msg.value) */\n      swap1\n      pop\n        /* \"contracts/Vault.sol\":1350:1356  minUSD */\n      sload(0x02)\n        /* \"contracts/Vault.sol\":1338:1346  usdValue */\n      dup2\n        /* \"contracts/Vault.sol\":1338:1356  usdValue >= minUSD */\n      lt\n      iszero\n        /* \"contracts/Vault.sol\":1330:1402  require(usdValue >= minUSD, \"Deposit must be at least $1 worth of ETH.\") */\n      tag_55\n      jumpi\n      mload(0x40)\n      0x08c379a000000000000000000000000000000000000000000000000000000000\n      dup2\n      mstore\n      0x04\n      add\n      tag_56\n      swap1\n      tag_57\n      jump\t// in\n    tag_56:\n      mload(0x40)\n      dup1\n      swap2\n      sub\n      swap1\n      revert\n    tag_55:\n        /* \"contracts/Vault.sol\":1437:1446  msg.value */\n      callvalue\n        /* \"contracts/Vault.sol\":1413:1421  balances */\n      0x01\n        /* \"contracts/Vault.sol\":1413:1433  balances[msg.sender] */\n      0x00\n        /* \"contracts/Vault.sol\":1422:1432  msg.sender */\n      caller\n        /* \"contracts/Vault.sol\":1413:1433  balances[msg.sender] */\n      0xffffffffffffffffffffffffffffffffffffffff\n      and\n      0xffffffffffffffffffffffffffffffffffffffff\n      and\n      dup2\n      mstore\n      0x20\n      add\n      swap1\n      dup2\n      mstore\n      0x20\n      add\n      0x00\n      keccak256\n      0x00\n        /* \"contracts/Vault.sol\":1413:1446  balances[msg.sender] += msg.value */\n      dup3\n      dup3\n      sload\n      tag_58\n      swap2\n      swap1\n      tag_59\n      jump\t// in\n    tag_58:\n      swap3\n      pop\n      pop\n      dup2\n      swap1\n      sstore\n      pop\n        /* \"contracts/Vault.sol\":1470:1480  msg.sender */\n      caller\n        /* \"contracts/Vault.sol\":1462:1492  Deposit(msg.sender, msg.value) */\n      0xffffffffffffffffffffffffffffffffffffffff\n      and\n      0xe1fffcc4923d04b559f4d29a8bfc6cda04eb5b0d3c460751c2402c5c5cc9109c\n        /* \"contracts/Vault.sol\":1482:1491  msg.value */\n      callvalue\n        /* \"contracts/Vault.sol\":1462:1492  Deposit(msg.sender, msg.value) */\n      mload(0x40)\n      tag_60\n      swap2\n      swap1\n      tag_16\n      jump\t// in\n    tag_60:\n      mload(0x40)\n      dup1\n      swap2\n      sub\n      swap1\n      log2\n        /* \"contracts/Vault.sol\":1157:1499  {... */\n      pop\n        /* \"contracts/Vault.sol\":1123:1499  function deposit() public payable {... */\n      jump\t// out\n        /* \"contracts/Vault.sol\":379:417  address public /* immutable */ i_owner */\n    tag_21:\n      0x00\n      dup1\n      sload\n      swap1\n      0x0100\n      exp\n      swap1\n      div\n      0xffffffffffffffffffffffffffffffffffffffff\n      and\n      dup2\n      jump\t// out\n        /* \"contracts/Vault.sol\":564:596  uint256 public minUSD = 1 * 1e18 */\n    tag_26:\n      sload(0x02)\n      dup2\n      jump\t// out\n        /* \"contracts/Vault.sol\":2355:2796  function getPriceETH_USD() public view returns (uint256) {... */\n    tag_30:\n        /* \"contracts/Vault.sol\":2403:2410  uint256 */\n      0x00\n        /* \"contracts/Vault.sol\":2431:2462  AggregatorV3Interface priceFeed */\n      dup1\n        /* \"contracts/Vault.sol\":640:682  0x694AA1769357215DE4FAC081bf1f309aDC325306 */\n      0x694aa1769357215de4fac081bf1f309adc325306\n        /* \"contracts/Vault.sol\":2431:2528  AggregatorV3Interface priceFeed = AggregatorV3Interface(... */\n      swap1\n      pop\n        /* \"contracts/Vault.sol\":2551:2563  int256 price */\n      0x00\n        /* \"contracts/Vault.sol\":2573:2582  priceFeed */\n      dup2\n        /* \"contracts/Vault.sol\":2573:2598  priceFeed.latestRoundData */\n      0xffffffffffffffffffffffffffffffffffffffff\n      and\n      0xfeaf968c\n        /* \"contracts/Vault.sol\":2573:2600  priceFeed.latestRoundData() */\n      mload(0x40)\n      dup2\n      0xffffffff\n      and\n      0xe0\n      shl\n      dup2\n      mstore\n      0x04\n      add\n      0xa0\n      mload(0x40)\n      dup1\n      dup4\n      sub\n      dup2\n      dup7\n      gas\n      staticcall\n      iszero\n      dup1\n      iszero\n      tag_63\n      jumpi\n      returndatasize\n      0x00\n      dup1\n      returndatacopy\n      revert(0x00, returndatasize)\n    tag_63:\n      pop\n      pop\n      pop\n      pop\n      mload(0x40)\n      returndatasize\n      not(0x1f)\n      0x1f\n      dup3\n      add\n      and\n      dup3\n      add\n      dup1\n      0x40\n      mstore\n      pop\n      dup2\n      add\n      swap1\n      tag_64\n      swap2\n      swap1\n      tag_65\n      jump\t// in\n    tag_64:\n        /* \"contracts/Vault.sol\":2547:2600  ( , int256 price, , , ) = priceFeed.latestRoundData() */\n      pop\n      pop\n      pop\n      swap2\n      pop\n      pop\n        /* \"contracts/Vault.sol\":2684:2685  0 */\n      0x00\n        /* \"contracts/Vault.sol\":2675:2680  price */\n      dup2\n        /* \"contracts/Vault.sol\":2675:2685  price <= 0 */\n      sgt\n        /* \"contracts/Vault.sol\":2672:2719  if(price <= 0) {revert InvalidPriceDataFeed();} */\n      tag_66\n      jumpi\n        /* \"contracts/Vault.sol\":2695:2717  InvalidPriceDataFeed() */\n      mload(0x40)\n      0xeb713cf200000000000000000000000000000000000000000000000000000000\n      dup2\n      mstore\n      0x04\n      add\n      mload(0x40)\n      dup1\n      swap2\n      sub\n      swap1\n      revert\n        /* \"contracts/Vault.sol\":2672:2719  if(price <= 0) {revert InvalidPriceDataFeed();} */\n    tag_66:\n        /* \"contracts/Vault.sol\":2728:2742  uint256 scaled */\n      0x00\n        /* \"contracts/Vault.sol\":2762:2766  1e10 */\n      0x02540be400\n        /* \"contracts/Vault.sol\":2753:2758  price */\n      dup3\n        /* \"contracts/Vault.sol\":2745:2766  uint256(price) * 1e10 */\n      tag_67\n      swap2\n      swap1\n      tag_49\n      jump\t// in\n    tag_67:\n        /* \"contracts/Vault.sol\":2728:2766  uint256 scaled = uint256(price) * 1e10 */\n      swap1\n      pop\n        /* \"contracts/Vault.sol\":2783:2789  scaled */\n      dup1\n        /* \"contracts/Vault.sol\":2776:2789  return scaled */\n      swap4\n      pop\n      pop\n      pop\n      pop\n        /* \"contracts/Vault.sol\":2355:2796  function getPriceETH_USD() public view returns (uint256) {... */\n      swap1\n      jump\t// out\n        /* \"contracts/Vault.sol\":2071:2171  function checkBalance() internal view returns (uint256) {... */\n    tag_34:\n        /* \"contracts/Vault.sol\":2118:2125  uint256 */\n      0x00\n        /* \"contracts/Vault.sol\":2144:2152  balances */\n      0x01\n        /* \"contracts/Vault.sol\":2144:2164  balances[msg.sender] */\n      0x00\n        /* \"contracts/Vault.sol\":2153:2163  msg.sender */\n      caller\n        /* \"contracts/Vault.sol\":2144:2164  balances[msg.sender] */\n      0xffffffffffffffffffffffffffffffffffffffff\n      and\n      0xffffffffffffffffffffffffffffffffffffffff\n      and\n      dup2\n      mstore\n      0x20\n      add\n      swap1\n      dup2\n      mstore\n      0x20\n      add\n      0x00\n      keccak256\n      sload\n        /* \"contracts/Vault.sol\":2137:2164  return balances[msg.sender] */\n      swap1\n      pop\n        /* \"contracts/Vault.sol\":2071:2171  function checkBalance() internal view returns (uint256) {... */\n      swap1\n      jump\t// out\n        /* \"#utility.yul\":88:205   */\n    tag_70:\n        /* \"#utility.yul\":197:198   */\n      0x00\n        /* \"#utility.yul\":194:195   */\n      dup1\n        /* \"#utility.yul\":187:199   */\n      revert\n        /* \"#utility.yul\":334:411   */\n    tag_72:\n        /* \"#utility.yul\":371:378   */\n      0x00\n        /* \"#utility.yul\":400:405   */\n      dup2\n        /* \"#utility.yul\":389:405   */\n      swap1\n      pop\n        /* \"#utility.yul\":334:411   */\n      swap2\n      swap1\n      pop\n      jump\t// out\n        /* \"#utility.yul\":417:539   */\n    tag_73:\n        /* \"#utility.yul\":490:514   */\n      tag_102\n        /* \"#utility.yul\":508:513   */\n      dup2\n        /* \"#utility.yul\":490:514   */\n      tag_72\n      jump\t// in\n    tag_102:\n        /* \"#utility.yul\":483:488   */\n      dup2\n        /* \"#utility.yul\":480:515   */\n      eq\n        /* \"#utility.yul\":470:533   */\n      tag_103\n      jumpi\n        /* \"#utility.yul\":529:530   */\n      0x00\n        /* \"#utility.yul\":526:527   */\n      dup1\n        /* \"#utility.yul\":519:531   */\n      revert\n        /* \"#utility.yul\":470:533   */\n    tag_103:\n        /* \"#utility.yul\":417:539   */\n      pop\n      jump\t// out\n        /* \"#utility.yul\":545:684   */\n    tag_74:\n        /* \"#utility.yul\":591:596   */\n      0x00\n        /* \"#utility.yul\":629:635   */\n      dup2\n        /* \"#utility.yul\":616:636   */\n      calldataload\n        /* \"#utility.yul\":607:636   */\n      swap1\n      pop\n        /* \"#utility.yul\":645:678   */\n      tag_105\n        /* \"#utility.yul\":672:677   */\n      dup2\n        /* \"#utility.yul\":645:678   */\n      tag_73\n      jump\t// in\n    tag_105:\n        /* \"#utility.yul\":545:684   */\n      swap3\n      swap2\n      pop\n      pop\n      jump\t// out\n        /* \"#utility.yul\":690:1019   */\n    tag_13:\n        /* \"#utility.yul\":749:755   */\n      0x00\n        /* \"#utility.yul\":798:800   */\n      0x20\n        /* \"#utility.yul\":786:795   */\n      dup3\n        /* \"#utility.yul\":777:784   */\n      dup5\n        /* \"#utility.yul\":773:796   */\n      sub\n        /* \"#utility.yul\":769:801   */\n      slt\n        /* \"#utility.yul\":766:885   */\n      iszero\n      tag_107\n      jumpi\n        /* \"#utility.yul\":804:883   */\n      tag_108\n      tag_70\n      jump\t// in\n    tag_108:\n        /* \"#utility.yul\":766:885   */\n    tag_107:\n        /* \"#utility.yul\":924:925   */\n      0x00\n        /* \"#utility.yul\":949:1002   */\n      tag_109\n        /* \"#utility.yul\":994:1001   */\n      dup5\n        /* \"#utility.yul\":985:991   */\n      dup3\n        /* \"#utility.yul\":974:983   */\n      dup6\n        /* \"#utility.yul\":970:992   */\n      add\n        /* \"#utility.yul\":949:1002   */\n      tag_74\n      jump\t// in\n    tag_109:\n        /* \"#utility.yul\":939:1002   */\n      swap2\n      pop\n        /* \"#utility.yul\":895:1012   */\n      pop\n        /* \"#utility.yul\":690:1019   */\n      swap3\n      swap2\n      pop\n      pop\n      jump\t// out\n        /* \"#utility.yul\":1025:1143   */\n    tag_75:\n        /* \"#utility.yul\":1112:1136   */\n      tag_111\n        /* \"#utility.yul\":1130:1135   */\n      dup2\n        /* \"#utility.yul\":1112:1136   */\n      tag_72\n      jump\t// in\n    tag_111:\n        /* \"#utility.yul\":1107:1110   */\n      dup3\n        /* \"#utility.yul\":1100:1137   */\n      mstore\n        /* \"#utility.yul\":1025:1143   */\n      pop\n      pop\n      jump\t// out\n        /* \"#utility.yul\":1149:1371   */\n    tag_16:\n        /* \"#utility.yul\":1242:1246   */\n      0x00\n        /* \"#utility.yul\":1280:1282   */\n      0x20\n        /* \"#utility.yul\":1269:1278   */\n      dup3\n        /* \"#utility.yul\":1265:1283   */\n      add\n        /* \"#utility.yul\":1257:1283   */\n      swap1\n      pop\n        /* \"#utility.yul\":1293:1364   */\n      tag_113\n        /* \"#utility.yul\":1361:1362   */\n      0x00\n        /* \"#utility.yul\":1350:1359   */\n      dup4\n        /* \"#utility.yul\":1346:1363   */\n      add\n        /* \"#utility.yul\":1337:1343   */\n      dup5\n        /* \"#utility.yul\":1293:1364   */\n      tag_75\n      jump\t// in\n    tag_113:\n        /* \"#utility.yul\":1149:1371   */\n      swap3\n      swap2\n      pop\n      pop\n      jump\t// out\n        /* \"#utility.yul\":1377:1503   */\n    tag_76:\n        /* \"#utility.yul\":1414:1421   */\n      0x00\n        /* \"#utility.yul\":1454:1496   */\n      0xffffffffffffffffffffffffffffffffffffffff\n        /* \"#utility.yul\":1447:1452   */\n      dup3\n        /* \"#utility.yul\":1443:1497   */\n      and\n        /* \"#utility.yul\":1432:1497   */\n      swap1\n      pop\n        /* \"#utility.yul\":1377:1503   */\n      swap2\n      swap1\n      pop\n      jump\t// out\n        /* \"#utility.yul\":1509:1605   */\n    tag_77:\n        /* \"#utility.yul\":1546:1553   */\n      0x00\n        /* \"#utility.yul\":1575:1599   */\n      tag_116\n        /* \"#utility.yul\":1593:1598   */\n      dup3\n        /* \"#utility.yul\":1575:1599   */\n      tag_76\n      jump\t// in\n    tag_116:\n        /* \"#utility.yul\":1564:1599   */\n      swap1\n      pop\n        /* \"#utility.yul\":1509:1605   */\n      swap2\n      swap1\n      pop\n      jump\t// out\n        /* \"#utility.yul\":1611:1729   */\n    tag_78:\n        /* \"#utility.yul\":1698:1722   */\n      tag_118\n        /* \"#utility.yul\":1716:1721   */\n      dup2\n        /* \"#utility.yul\":1698:1722   */\n      tag_77\n      jump\t// in\n    tag_118:\n        /* \"#utility.yul\":1693:1696   */\n      dup3\n        /* \"#utility.yul\":1686:1723   */\n      mstore\n        /* \"#utility.yul\":1611:1729   */\n      pop\n      pop\n      jump\t// out\n        /* \"#utility.yul\":1735:1957   */\n    tag_23:\n        /* \"#utility.yul\":1828:1832   */\n      0x00\n        /* \"#utility.yul\":1866:1868   */\n      0x20\n        /* \"#utility.yul\":1855:1864   */\n      dup3\n        /* \"#utility.yul\":1851:1869   */\n      add\n        /* \"#utility.yul\":1843:1869   */\n      swap1\n      pop\n        /* \"#utility.yul\":1879:1950   */\n      tag_120\n        /* \"#utility.yul\":1947:1948   */\n      0x00\n        /* \"#utility.yul\":1936:1945   */\n      dup4\n        /* \"#utility.yul\":1932:1949   */\n      add\n        /* \"#utility.yul\":1923:1929   */\n      dup5\n        /* \"#utility.yul\":1879:1950   */\n      tag_78\n      jump\t// in\n    tag_120:\n        /* \"#utility.yul\":1735:1957   */\n      swap3\n      swap2\n      pop\n      pop\n      jump\t// out\n        /* \"#utility.yul\":1963:2110   */\n    tag_79:\n        /* \"#utility.yul\":2064:2075   */\n      0x00\n        /* \"#utility.yul\":2101:2104   */\n      dup2\n        /* \"#utility.yul\":2086:2104   */\n      swap1\n      pop\n        /* \"#utility.yul\":1963:2110   */\n      swap3\n      swap2\n      pop\n      pop\n      jump\t// out\n        /* \"#utility.yul\":2116:2230   */\n    tag_80:\n      pop\n      jump\t// out\n        /* \"#utility.yul\":2236:2634   */\n    tag_81:\n        /* \"#utility.yul\":2395:2398   */\n      0x00\n        /* \"#utility.yul\":2416:2499   */\n      tag_124\n        /* \"#utility.yul\":2497:2498   */\n      0x00\n        /* \"#utility.yul\":2492:2495   */\n      dup4\n        /* \"#utility.yul\":2416:2499   */\n      tag_79\n      jump\t// in\n    tag_124:\n        /* \"#utility.yul\":2409:2499   */\n      swap2\n      pop\n        /* \"#utility.yul\":2508:2601   */\n      tag_125\n        /* \"#utility.yul\":2597:2600   */\n      dup3\n        /* \"#utility.yul\":2508:2601   */\n      tag_80\n      jump\t// in\n    tag_125:\n        /* \"#utility.yul\":2626:2627   */\n      0x00\n        /* \"#utility.yul\":2621:2624   */\n      dup3\n        /* \"#utility.yul\":2617:2628   */\n      add\n        /* \"#utility.yul\":2610:2628   */\n      swap1\n      pop\n        /* \"#utility.yul\":2236:2634   */\n      swap2\n      swap1\n      pop\n      jump\t// out\n        /* \"#utility.yul\":2640:3019   */\n    tag_38:\n        /* \"#utility.yul\":2824:2827   */\n      0x00\n        /* \"#utility.yul\":2846:2993   */\n      tag_127\n        /* \"#utility.yul\":2989:2992   */\n      dup3\n        /* \"#utility.yul\":2846:2993   */\n      tag_81\n      jump\t// in\n    tag_127:\n        /* \"#utility.yul\":2839:2993   */\n      swap2\n      pop\n        /* \"#utility.yul\":3010:3013   */\n      dup2\n        /* \"#utility.yul\":3003:3013   */\n      swap1\n      pop\n        /* \"#utility.yul\":2640:3019   */\n      swap2\n      swap1\n      pop\n      jump\t// out\n        /* \"#utility.yul\":3025:3194   */\n    tag_82:\n        /* \"#utility.yul\":3109:3120   */\n      0x00\n        /* \"#utility.yul\":3143:3149   */\n      dup3\n        /* \"#utility.yul\":3138:3141   */\n      dup3\n        /* \"#utility.yul\":3131:3150   */\n      mstore\n        /* \"#utility.yul\":3183:3187   */\n      0x20\n        /* \"#utility.yul\":3178:3181   */\n      dup3\n        /* \"#utility.yul\":3174:3188   */\n      add\n        /* \"#utility.yul\":3159:3188   */\n      swap1\n      pop\n        /* \"#utility.yul\":3025:3194   */\n      swap3\n      swap2\n      pop\n      pop\n      jump\t// out\n        /* \"#utility.yul\":3200:3367   */\n    tag_83:\n        /* \"#utility.yul\":3340:3359   */\n      0x5769746864726177616c206661696c6564000000000000000000000000000000\n        /* \"#utility.yul\":3336:3337   */\n      0x00\n        /* \"#utility.yul\":3328:3334   */\n      dup3\n        /* \"#utility.yul\":3324:3338   */\n      add\n        /* \"#utility.yul\":3317:3360   */\n      mstore\n        /* \"#utility.yul\":3200:3367   */\n      pop\n      jump\t// out\n        /* \"#utility.yul\":3373:3739   */\n    tag_84:\n        /* \"#utility.yul\":3515:3518   */\n      0x00\n        /* \"#utility.yul\":3536:3603   */\n      tag_131\n        /* \"#utility.yul\":3600:3602   */\n      0x11\n        /* \"#utility.yul\":3595:3598   */\n      dup4\n        /* \"#utility.yul\":3536:3603   */\n      tag_82\n      jump\t// in\n    tag_131:\n        /* \"#utility.yul\":3529:3603   */\n      swap2\n      pop\n        /* \"#utility.yul\":3612:3705   */\n      tag_132\n        /* \"#utility.yul\":3701:3704   */\n      dup3\n        /* \"#utility.yul\":3612:3705   */\n      tag_83\n      jump\t// in\n    tag_132:\n        /* \"#utility.yul\":3730:3732   */\n      0x20\n        /* \"#utility.yul\":3725:3728   */\n      dup3\n        /* \"#utility.yul\":3721:3733   */\n      add\n        /* \"#utility.yul\":3714:3733   */\n      swap1\n      pop\n        /* \"#utility.yul\":3373:3739   */\n      swap2\n      swap1\n      pop\n      jump\t// out\n        /* \"#utility.yul\":3745:4164   */\n    tag_44:\n        /* \"#utility.yul\":3911:3915   */\n      0x00\n        /* \"#utility.yul\":3949:3951   */\n      0x20\n        /* \"#utility.yul\":3938:3947   */\n      dup3\n        /* \"#utility.yul\":3934:3952   */\n      add\n        /* \"#utility.yul\":3926:3952   */\n      swap1\n      pop\n        /* \"#utility.yul\":3998:4007   */\n      dup2\n        /* \"#utility.yul\":3992:3996   */\n      dup2\n        /* \"#utility.yul\":3988:4008   */\n      sub\n        /* \"#utility.yul\":3984:3985   */\n      0x00\n        /* \"#utility.yul\":3973:3982   */\n      dup4\n        /* \"#utility.yul\":3969:3986   */\n      add\n        /* \"#utility.yul\":3962:4009   */\n      mstore\n        /* \"#utility.yul\":4026:4157   */\n      tag_134\n        /* \"#utility.yul\":4152:4156   */\n      dup2\n        /* \"#utility.yul\":4026:4157   */\n      tag_84\n      jump\t// in\n    tag_134:\n        /* \"#utility.yul\":4018:4157   */\n      swap1\n      pop\n        /* \"#utility.yul\":3745:4164   */\n      swap2\n      swap1\n      pop\n      jump\t// out\n        /* \"#utility.yul\":4170:4350   */\n    tag_85:\n        /* \"#utility.yul\":4218:4295   */\n      0x4e487b7100000000000000000000000000000000000000000000000000000000\n        /* \"#utility.yul\":4215:4216   */\n      0x00\n        /* \"#utility.yul\":4208:4296   */\n      mstore\n        /* \"#utility.yul\":4315:4319   */\n      0x11\n        /* \"#utility.yul\":4312:4313   */\n      0x04\n        /* \"#utility.yul\":4305:4320   */\n      mstore\n        /* \"#utility.yul\":4339:4343   */\n      0x24\n        /* \"#utility.yul\":4336:4337   */\n      0x00\n        /* \"#utility.yul\":4329:4344   */\n      revert\n        /* \"#utility.yul\":4356:4766   */\n    tag_49:\n        /* \"#utility.yul\":4396:4403   */\n      0x00\n        /* \"#utility.yul\":4419:4439   */\n      tag_137\n        /* \"#utility.yul\":4437:4438   */\n      dup3\n        /* \"#utility.yul\":4419:4439   */\n      tag_72\n      jump\t// in\n    tag_137:\n        /* \"#utility.yul\":4414:4439   */\n      swap2\n      pop\n        /* \"#utility.yul\":4453:4473   */\n      tag_138\n        /* \"#utility.yul\":4471:4472   */\n      dup4\n        /* \"#utility.yul\":4453:4473   */\n      tag_72\n      jump\t// in\n    tag_138:\n        /* \"#utility.yul\":4448:4473   */\n      swap3\n      pop\n        /* \"#utility.yul\":4508:4509   */\n      dup3\n        /* \"#utility.yul\":4505:4506   */\n      dup3\n        /* \"#utility.yul\":4501:4510   */\n      mul\n        /* \"#utility.yul\":4530:4560   */\n      tag_139\n        /* \"#utility.yul\":4548:4559   */\n      dup2\n        /* \"#utility.yul\":4530:4560   */\n      tag_72\n      jump\t// in\n    tag_139:\n        /* \"#utility.yul\":4519:4560   */\n      swap2\n      pop\n        /* \"#utility.yul\":4709:4710   */\n      dup3\n        /* \"#utility.yul\":4700:4707   */\n      dup3\n        /* \"#utility.yul\":4696:4711   */\n      div\n        /* \"#utility.yul\":4693:4694   */\n      dup5\n        /* \"#utility.yul\":4690:4712   */\n      eq\n        /* \"#utility.yul\":4670:4671   */\n      dup4\n        /* \"#utility.yul\":4663:4672   */\n      iszero\n        /* \"#utility.yul\":4643:4726   */\n      or\n        /* \"#utility.yul\":4620:4759   */\n      tag_140\n      jumpi\n        /* \"#utility.yul\":4739:4757   */\n      tag_141\n      tag_85\n      jump\t// in\n    tag_141:\n        /* \"#utility.yul\":4620:4759   */\n    tag_140:\n        /* \"#utility.yul\":4404:4766   */\n      pop\n        /* \"#utility.yul\":4356:4766   */\n      swap3\n      swap2\n      pop\n      pop\n      jump\t// out\n        /* \"#utility.yul\":4772:4952   */\n    tag_86:\n        /* \"#utility.yul\":4820:4897   */\n      0x4e487b7100000000000000000000000000000000000000000000000000000000\n        /* \"#utility.yul\":4817:4818   */\n      0x00\n        /* \"#utility.yul\":4810:4898   */\n      mstore\n        /* \"#utility.yul\":4917:4921   */\n      0x12\n        /* \"#utility.yul\":4914:4915   */\n      0x04\n        /* \"#utility.yul\":4907:4922   */\n      mstore\n        /* \"#utility.yul\":4941:4945   */\n      0x24\n        /* \"#utility.yul\":4938:4939   */\n      0x00\n        /* \"#utility.yul\":4931:4946   */\n      revert\n        /* \"#utility.yul\":4958:5143   */\n    tag_51:\n        /* \"#utility.yul\":4998:4999   */\n      0x00\n        /* \"#utility.yul\":5015:5035   */\n      tag_144\n        /* \"#utility.yul\":5033:5034   */\n      dup3\n        /* \"#utility.yul\":5015:5035   */\n      tag_72\n      jump\t// in\n    tag_144:\n        /* \"#utility.yul\":5010:5035   */\n      swap2\n      pop\n        /* \"#utility.yul\":5049:5069   */\n      tag_145\n        /* \"#utility.yul\":5067:5068   */\n      dup4\n        /* \"#utility.yul\":5049:5069   */\n      tag_72\n      jump\t// in\n    tag_145:\n        /* \"#utility.yul\":5044:5069   */\n      swap3\n      pop\n        /* \"#utility.yul\":5088:5089   */\n      dup3\n        /* \"#utility.yul\":5078:5113   */\n      tag_146\n      jumpi\n        /* \"#utility.yul\":5093:5111   */\n      tag_147\n      tag_86\n      jump\t// in\n    tag_147:\n        /* \"#utility.yul\":5078:5113   */\n    tag_146:\n        /* \"#utility.yul\":5135:5136   */\n      dup3\n        /* \"#utility.yul\":5132:5133   */\n      dup3\n        /* \"#utility.yul\":5128:5137   */\n      div\n        /* \"#utility.yul\":5123:5137   */\n      swap1\n      pop\n        /* \"#utility.yul\":4958:5143   */\n      swap3\n      swap2\n      pop\n      pop\n      jump\t// out\n        /* \"#utility.yul\":5149:5377   */\n    tag_87:\n        /* \"#utility.yul\":5289:5323   */\n      0x4465706f736974206d757374206265206174206c6561737420243120776f7274\n        /* \"#utility.yul\":5285:5286   */\n      0x00\n        /* \"#utility.yul\":5277:5283   */\n      dup3\n        /* \"#utility.yul\":5273:5287   */\n      add\n        /* \"#utility.yul\":5266:5324   */\n      mstore\n        /* \"#utility.yul\":5358:5369   */\n      0x68206f66204554482e0000000000000000000000000000000000000000000000\n        /* \"#utility.yul\":5353:5355   */\n      0x20\n        /* \"#utility.yul\":5345:5351   */\n      dup3\n        /* \"#utility.yul\":5341:5356   */\n      add\n        /* \"#utility.yul\":5334:5370   */\n      mstore\n        /* \"#utility.yul\":5149:5377   */\n      pop\n      jump\t// out\n        /* \"#utility.yul\":5383:5749   */\n    tag_88:\n        /* \"#utility.yul\":5525:5528   */\n      0x00\n        /* \"#utility.yul\":5546:5613   */\n      tag_150\n        /* \"#utility.yul\":5610:5612   */\n      0x29\n        /* \"#utility.yul\":5605:5608   */\n      dup4\n        /* \"#utility.yul\":5546:5613   */\n      tag_82\n      jump\t// in\n    tag_150:\n        /* \"#utility.yul\":5539:5613   */\n      swap2\n      pop\n        /* \"#utility.yul\":5622:5715   */\n      tag_151\n        /* \"#utility.yul\":5711:5714   */\n      dup3\n        /* \"#utility.yul\":5622:5715   */\n      tag_87\n      jump\t// in\n    tag_151:\n        /* \"#utility.yul\":5740:5742   */\n      0x40\n        /* \"#utility.yul\":5735:5738   */\n      dup3\n        /* \"#utility.yul\":5731:5743   */\n      add\n        /* \"#utility.yul\":5724:5743   */\n      swap1\n      pop\n        /* \"#utility.yul\":5383:5749   */\n      swap2\n      swap1\n      pop\n      jump\t// out\n        /* \"#utility.yul\":5755:6174   */\n    tag_57:\n        /* \"#utility.yul\":5921:5925   */\n      0x00\n        /* \"#utility.yul\":5959:5961   */\n      0x20\n        /* \"#utility.yul\":5948:5957   */\n      dup3\n        /* \"#utility.yul\":5944:5962   */\n      add\n        /* \"#utility.yul\":5936:5962   */\n      swap1\n      pop\n        /* \"#utility.yul\":6008:6017   */\n      dup2\n        /* \"#utility.yul\":6002:6006   */\n      dup2\n        /* \"#utility.yul\":5998:6018   */\n      sub\n        /* \"#utility.yul\":5994:5995   */\n      0x00\n        /* \"#utility.yul\":5983:5992   */\n      dup4\n        /* \"#utility.yul\":5979:5996   */\n      add\n        /* \"#utility.yul\":5972:6019   */\n      mstore\n        /* \"#utility.yul\":6036:6167   */\n      tag_153\n        /* \"#utility.yul\":6162:6166   */\n      dup2\n        /* \"#utility.yul\":6036:6167   */\n      tag_88\n      jump\t// in\n    tag_153:\n        /* \"#utility.yul\":6028:6167   */\n      swap1\n      pop\n        /* \"#utility.yul\":5755:6174   */\n      swap2\n      swap1\n      pop\n      jump\t// out\n        /* \"#utility.yul\":6180:6371   */\n    tag_59:\n        /* \"#utility.yul\":6220:6223   */\n      0x00\n        /* \"#utility.yul\":6239:6259   */\n      tag_155\n        /* \"#utility.yul\":6257:6258   */\n      dup3\n        /* \"#utility.yul\":6239:6259   */\n      tag_72\n      jump\t// in\n    tag_155:\n        /* \"#utility.yul\":6234:6259   */\n      swap2\n      pop\n        /* \"#utility.yul\":6273:6293   */\n      tag_156\n        /* \"#utility.yul\":6291:6292   */\n      dup4\n        /* \"#utility.yul\":6273:6293   */\n      tag_72\n      jump\t// in\n    tag_156:\n        /* \"#utility.yul\":6268:6293   */\n      swap3\n      pop\n        /* \"#utility.yul\":6316:6317   */\n      dup3\n        /* \"#utility.yul\":6313:6314   */\n      dup3\n        /* \"#utility.yul\":6309:6318   */\n      add\n        /* \"#utility.yul\":6302:6318   */\n      swap1\n      pop\n        /* \"#utility.yul\":6337:6340   */\n      dup1\n        /* \"#utility.yul\":6334:6335   */\n      dup3\n        /* \"#utility.yul\":6331:6341   */\n      gt\n        /* \"#utility.yul\":6328:6364   */\n      iszero\n      tag_157\n      jumpi\n        /* \"#utility.yul\":6344:6362   */\n      tag_158\n      tag_85\n      jump\t// in\n    tag_158:\n        /* \"#utility.yul\":6328:6364   */\n    tag_157:\n        /* \"#utility.yul\":6180:6371   */\n      swap3\n      swap2\n      pop\n      pop\n      jump\t// out\n        /* \"#utility.yul\":6377:6482   */\n    tag_89:\n        /* \"#utility.yul\":6413:6420   */\n      0x00\n        /* \"#utility.yul\":6453:6475   */\n      0xffffffffffffffffffff\n        /* \"#utility.yul\":6446:6451   */\n      dup3\n        /* \"#utility.yul\":6442:6476   */\n      and\n        /* \"#utility.yul\":6431:6476   */\n      swap1\n      pop\n        /* \"#utility.yul\":6377:6482   */\n      swap2\n      swap1\n      pop\n      jump\t// out\n        /* \"#utility.yul\":6488:6608   */\n    tag_90:\n        /* \"#utility.yul\":6560:6583   */\n      tag_161\n        /* \"#utility.yul\":6577:6582   */\n      dup2\n        /* \"#utility.yul\":6560:6583   */\n      tag_89\n      jump\t// in\n    tag_161:\n        /* \"#utility.yul\":6553:6558   */\n      dup2\n        /* \"#utility.yul\":6550:6584   */\n      eq\n        /* \"#utility.yul\":6540:6602   */\n      tag_162\n      jumpi\n        /* \"#utility.yul\":6598:6599   */\n      0x00\n        /* \"#utility.yul\":6595:6596   */\n      dup1\n        /* \"#utility.yul\":6588:6600   */\n      revert\n        /* \"#utility.yul\":6540:6602   */\n    tag_162:\n        /* \"#utility.yul\":6488:6608   */\n      pop\n      jump\t// out\n        /* \"#utility.yul\":6614:6755   */\n    tag_91:\n        /* \"#utility.yul\":6670:6675   */\n      0x00\n        /* \"#utility.yul\":6701:6707   */\n      dup2\n        /* \"#utility.yul\":6695:6708   */\n      mload\n        /* \"#utility.yul\":6686:6708   */\n      swap1\n      pop\n        /* \"#utility.yul\":6717:6749   */\n      tag_164\n        /* \"#utility.yul\":6743:6748   */\n      dup2\n        /* \"#utility.yul\":6717:6749   */\n      tag_90\n      jump\t// in\n    tag_164:\n        /* \"#utility.yul\":6614:6755   */\n      swap3\n      swap2\n      pop\n      pop\n      jump\t// out\n        /* \"#utility.yul\":6761:6837   */\n    tag_92:\n        /* \"#utility.yul\":6797:6804   */\n      0x00\n        /* \"#utility.yul\":6826:6831   */\n      dup2\n        /* \"#utility.yul\":6815:6831   */\n      swap1\n      pop\n        /* \"#utility.yul\":6761:6837   */\n      swap2\n      swap1\n      pop\n      jump\t// out\n        /* \"#utility.yul\":6843:6963   */\n    tag_93:\n        /* \"#utility.yul\":6915:6938   */\n      tag_167\n        /* \"#utility.yul\":6932:6937   */\n      dup2\n        /* \"#utility.yul\":6915:6938   */\n      tag_92\n      jump\t// in\n    tag_167:\n        /* \"#utility.yul\":6908:6913   */\n      dup2\n        /* \"#utility.yul\":6905:6939   */\n      eq\n        /* \"#utility.yul\":6895:6957   */\n      tag_168\n      jumpi\n        /* \"#utility.yul\":6953:6954   */\n      0x00\n        /* \"#utility.yul\":6950:6951   */\n      dup1\n        /* \"#utility.yul\":6943:6955   */\n      revert\n        /* \"#utility.yul\":6895:6957   */\n    tag_168:\n        /* \"#utility.yul\":6843:6963   */\n      pop\n      jump\t// out\n        /* \"#utility.yul\":6969:7110   */\n    tag_94:\n        /* \"#utility.yul\":7025:7030   */\n      0x00\n        /* \"#utility.yul\":7056:7062   */\n      dup2\n        /* \"#utility.yul\":7050:7063   */\n      mload\n        /* \"#utility.yul\":7041:7063   */\n      swap1\n      pop\n        /* \"#utility.yul\":7072:7104   */\n      tag_170\n        /* \"#utility.yul\":7098:7103   */\n      dup2\n        /* \"#utility.yul\":7072:7104   */\n      tag_93\n      jump\t// in\n    tag_170:\n        /* \"#utility.yul\":6969:7110   */\n      swap3\n      swap2\n      pop\n      pop\n      jump\t// out\n        /* \"#utility.yul\":7116:7259   */\n    tag_95:\n        /* \"#utility.yul\":7173:7178   */\n      0x00\n        /* \"#utility.yul\":7204:7210   */\n      dup2\n        /* \"#utility.yul\":7198:7211   */\n      mload\n        /* \"#utility.yul\":7189:7211   */\n      swap1\n      pop\n        /* \"#utility.yul\":7220:7253   */\n      tag_172\n        /* \"#utility.yul\":7247:7252   */\n      dup2\n        /* \"#utility.yul\":7220:7253   */\n      tag_73\n      jump\t// in\n    tag_172:\n        /* \"#utility.yul\":7116:7259   */\n      swap3\n      swap2\n      pop\n      pop\n      jump\t// out\n        /* \"#utility.yul\":7265:8236   */\n    tag_65:\n        /* \"#utility.yul\":7368:7374   */\n      0x00\n        /* \"#utility.yul\":7376:7382   */\n      dup1\n        /* \"#utility.yul\":7384:7390   */\n      0x00\n        /* \"#utility.yul\":7392:7398   */\n      dup1\n        /* \"#utility.yul\":7400:7406   */\n      0x00\n        /* \"#utility.yul\":7449:7452   */\n      0xa0\n        /* \"#utility.yul\":7437:7446   */\n      dup7\n        /* \"#utility.yul\":7428:7435   */\n      dup9\n        /* \"#utility.yul\":7424:7447   */\n      sub\n        /* \"#utility.yul\":7420:7453   */\n      slt\n        /* \"#utility.yul\":7417:7537   */\n      iszero\n      tag_174\n      jumpi\n        /* \"#utility.yul\":7456:7535   */\n      tag_175\n      tag_70\n      jump\t// in\n    tag_175:\n        /* \"#utility.yul\":7417:7537   */\n    tag_174:\n        /* \"#utility.yul\":7576:7577   */\n      0x00\n        /* \"#utility.yul\":7601:7664   */\n      tag_176\n        /* \"#utility.yul\":7656:7663   */\n      dup9\n        /* \"#utility.yul\":7647:7653   */\n      dup3\n        /* \"#utility.yul\":7636:7645   */\n      dup10\n        /* \"#utility.yul\":7632:7654   */\n      add\n        /* \"#utility.yul\":7601:7664   */\n      tag_91\n      jump\t// in\n    tag_176:\n        /* \"#utility.yul\":7591:7664   */\n      swap6\n      pop\n        /* \"#utility.yul\":7547:7674   */\n      pop\n        /* \"#utility.yul\":7713:7715   */\n      0x20\n        /* \"#utility.yul\":7739:7802   */\n      tag_177\n        /* \"#utility.yul\":7794:7801   */\n      dup9\n        /* \"#utility.yul\":7785:7791   */\n      dup3\n        /* \"#utility.yul\":7774:7783   */\n      dup10\n        /* \"#utility.yul\":7770:7792   */\n      add\n        /* \"#utility.yul\":7739:7802   */\n      tag_94\n      jump\t// in\n    tag_177:\n        /* \"#utility.yul\":7729:7802   */\n      swap5\n      pop\n        /* \"#utility.yul\":7684:7812   */\n      pop\n        /* \"#utility.yul\":7851:7853   */\n      0x40\n        /* \"#utility.yul\":7877:7941   */\n      tag_178\n        /* \"#utility.yul\":7933:7940   */\n      dup9\n        /* \"#utility.yul\":7924:7930   */\n      dup3\n        /* \"#utility.yul\":7913:7922   */\n      dup10\n        /* \"#utility.yul\":7909:7931   */\n      add\n        /* \"#utility.yul\":7877:7941   */\n      tag_95\n      jump\t// in\n    tag_178:\n        /* \"#utility.yul\":7867:7941   */\n      swap4\n      pop\n        /* \"#utility.yul\":7822:7951   */\n      pop\n        /* \"#utility.yul\":7990:7992   */\n      0x60\n        /* \"#utility.yul\":8016:8080   */\n      tag_179\n        /* \"#utility.yul\":8072:8079   */\n      dup9\n        /* \"#utility.yul\":8063:8069   */\n      dup3\n        /* \"#utility.yul\":8052:8061   */\n      dup10\n        /* \"#utility.yul\":8048:8070   */\n      add\n        /* \"#utility.yul\":8016:8080   */\n      tag_95\n      jump\t// in\n    tag_179:\n        /* \"#utility.yul\":8006:8080   */\n      swap3\n      pop\n        /* \"#utility.yul\":7961:8090   */\n      pop\n        /* \"#utility.yul\":8129:8132   */\n      0x80\n        /* \"#utility.yul\":8156:8219   */\n      tag_180\n        /* \"#utility.yul\":8211:8218   */\n      dup9\n        /* \"#utility.yul\":8202:8208   */\n      dup3\n        /* \"#utility.yul\":8191:8200   */\n      dup10\n        /* \"#utility.yul\":8187:8209   */\n      add\n        /* \"#utility.yul\":8156:8219   */\n      tag_91\n      jump\t// in\n    tag_180:\n        /* \"#utility.yul\":8146:8219   */\n      swap2\n      pop\n        /* \"#utility.yul\":8100:8229   */\n      pop\n        /* \"#utility.yul\":7265:8236   */\n      swap3\n      swap6\n      pop\n      swap3\n      swap6\n      swap1\n      swap4\n      pop\n      jump\t// out\n\n    auxdata: 0xa2646970667358221220b65d6e8d7d41ee1d8a0cb70f1698cc946fdbffaf73c49bbe98914fb76cdc682c64736f6c634300081a0033\n}\n",
				"bytecode": {
					"linkReferences": {},
					"object": "6080604052670de0b6b3a7640000600255348015601a575f80fd5b50335f806101000a81548173ffffffffffffffffffffffffffffffffffffffff021916908373ffffffffffffffffffffffffffffffffffffffff1602179055506109c1806100675f395ff3fe608060405260043610610054575f3560e01c80633ccfd60b146100585780633e8cdcda14610062578063d0e30db01461009e578063dba6335f146100a8578063dc992aa0146100d2578063e1d1f81b146100fc575b5f80fd5b610060610126565b005b34801561006d575f80fd5b506100886004803603810190610083919061059e565b6102b1565b60405161009591906105d8565b60405180910390f35b6100a66102e9565b005b3480156100b3575f80fd5b506100bc610417565b6040516100c99190610630565b60405180910390f35b3480156100dd575f80fd5b506100e661043a565b6040516100f391906105d8565b60405180910390f35b348015610107575f80fd5b50610110610440565b60405161011d91906105d8565b60405180910390f35b5f61012f610523565b90505f811161017557806040517f9266535100000000000000000000000000000000000000000000000000000000815260040161016c91906105d8565b60405180910390fd5b5f60015f3373ffffffffffffffffffffffffffffffffffffffff1673ffffffffffffffffffffffffffffffffffffffff1681526020019081526020015f20819055505f3373ffffffffffffffffffffffffffffffffffffffff16826040516101dc90610676565b5f6040518083038185875af1925050503d805f8114610216576040519150601f19603f3d011682016040523d82523d5f602084013e61021b565b606091505b505090508061025f576040517f08c379a0000000000000000000000000000000000000000000000000000000008152600401610256906106e4565b60405180910390fd5b3373ffffffffffffffffffffffffffffffffffffffff167f7fcf532c15f0a6db0bd6d0e038bea71d30d808c7d98cb3bf7268a95bf5081b65836040516102a591906105d8565b60405180910390a25050565b5f806102bb610440565b90505f670de0b6b3a764000084836102d3919061072f565b6102dd919061079d565b90508092505050919050565b5f3411610322576040517ff9acdc6100000000000000000000000000000000000000000000000000000000815260040160405180910390fd5b5f61032c346102b1565b9050600254811015610373576040517f08c379a000000000000000000000000000000000000000000000000000000000815260040161036a9061083d565b60405180910390fd5b3460015f3373ffffffffffffffffffffffffffffffffffffffff1673ffffffffffffffffffffffffffffffffffffffff1681526020019081526020015f205f8282546103bf919061085b565b925050819055503373ffffffffffffffffffffffffffffffffffffffff167fe1fffcc4923d04b559f4d29a8bfc6cda04eb5b0d3c460751c2402c5c5cc9109c3460405161040c91906105d8565b60405180910390a250565b5f8054906101000a900473ffffffffffffffffffffffffffffffffffffffff1681565b60025481565b5f8073694aa1769357215de4fac081bf1f309adc32530690505f8173ffffffffffffffffffffffffffffffffffffffff1663feaf968c6040518163ffffffff1660e01b815260040160a060405180830381865afa1580156104a3573d5f803e3d5ffd5b505050506040513d601f19601f820116820180604052508101906104c79190610914565b5050509150505f8113610506576040517feb713cf200000000000000000000000000000000000000000000000000000000815260040160405180910390fd5b5f6402540be40082610518919061072f565b905080935050505090565b5f60015f3373ffffffffffffffffffffffffffffffffffffffff1673ffffffffffffffffffffffffffffffffffffffff1681526020019081526020015f2054905090565b5f80fd5b5f819050919050565b61057d8161056b565b8114610587575f80fd5b50565b5f8135905061059881610574565b92915050565b5f602082840312156105b3576105b2610567565b5b5f6105c08482850161058a565b91505092915050565b6105d28161056b565b82525050565b5f6020820190506105eb5f8301846105c9565b92915050565b5f73ffffffffffffffffffffffffffffffffffffffff82169050919050565b5f61061a826105f1565b9050919050565b61062a81610610565b82525050565b5f6020820190506106435f830184610621565b92915050565b5f81905092915050565b50565b5f6106615f83610649565b915061066c82610653565b5f82019050919050565b5f61068082610656565b9150819050919050565b5f82825260208201905092915050565b7f5769746864726177616c206661696c65640000000000000000000000000000005f82015250565b5f6106ce60118361068a565b91506106d98261069a565b602082019050919050565b5f6020820190508181035f8301526106fb816106c2565b9050919050565b7f4e487b71000000000000000000000000000000000000000000000000000000005f52601160045260245ffd5b5f6107398261056b565b91506107448361056b565b92508282026107528161056b565b9150828204841483151761076957610768610702565b5b5092915050565b7f4e487b71000000000000000000000000000000000000000000000000000000005f52601260045260245ffd5b5f6107a78261056b565b91506107b28361056b565b9250826107c2576107c1610770565b5b828204905092915050565b7f4465706f736974206d757374206265206174206c6561737420243120776f72745f8201527f68206f66204554482e0000000000000000000000000000000000000000000000602082015250565b5f61082760298361068a565b9150610832826107cd565b604082019050919050565b5f6020820190508181035f8301526108548161081b565b9050919050565b5f6108658261056b565b91506108708361056b565b925082820190508082111561088857610887610702565b5b92915050565b5f69ffffffffffffffffffff82169050919050565b6108ac8161088e565b81146108b6575f80fd5b50565b5f815190506108c7816108a3565b92915050565b5f819050919050565b6108df816108cd565b81146108e9575f80fd5b50565b5f815190506108fa816108d6565b92915050565b5f8151905061090e81610574565b92915050565b5f805f805f60a0868803121561092d5761092c610567565b5b5f61093a888289016108b9565b955050602061094b888289016108ec565b945050604061095c88828901610900565b935050606061096d88828901610900565b925050608061097e888289016108b9565b915050929550929590935056fea2646970667358221220b65d6e8d7d41ee1d8a0cb70f1698cc946fdbffaf73c49bbe98914fb76cdc682c64736f6c634300081a0033",
					"opcodes": "PUSH1 0x80 PUSH1 0x40 MSTORE PUSH8 0xDE0B6B3A7640000 PUSH1 0x2 SSTORE CALLVALUE DUP1 ISZERO PUSH1 0x1A JUMPI PUSH0 DUP1 REVERT JUMPDEST POP CALLER PUSH0 DUP1 PUSH2 0x100 EXP DUP2 SLOAD DUP2 PUSH20 0xFFFFFFFFFFFFFFFFFFFFFFFFFFFFFFFFFFFFFFFF MUL NOT AND SWAP1 DUP4 PUSH20 0xFFFFFFFFFFFFFFFFFFFFFFFFFFFFFFFFFFFFFFFF AND MUL OR SWAP1 SSTORE POP PUSH2 0x9C1 DUP1 PUSH2 0x67 PUSH0 CODECOPY PUSH0 RETURN INVALID PUSH1 0x80 PUSH1 0x40 MSTORE PUSH1 0x4 CALLDATASIZE LT PUSH2 0x54 JUMPI PUSH0 CALLDATALOAD PUSH1 0xE0 SHR DUP1 PUSH4 0x3CCFD60B EQ PUSH2 0x58 JUMPI DUP1 PUSH4 0x3E8CDCDA EQ PUSH2 0x62 JUMPI DUP1 PUSH4 0xD0E30DB0 EQ PUSH2 0x9E JUMPI DUP1 PUSH4 0xDBA6335F EQ PUSH2 0xA8 JUMPI DUP1 PUSH4 0xDC992AA0 EQ PUSH2 0xD2 JUMPI DUP1 PUSH4 0xE1D1F81B EQ PUSH2 0xFC JUMPI JUMPDEST PUSH0 DUP1 REVERT JUMPDEST PUSH2 0x60 PUSH2 0x126 JUMP JUMPDEST STOP JUMPDEST CALLVALUE DUP1 ISZERO PUSH2 0x6D JUMPI PUSH0 DUP1 REVERT JUMPDEST POP PUSH2 0x88 PUSH1 0x4 DUP1 CALLDATASIZE SUB DUP2 ADD SWAP1 PUSH2 0x83 SWAP2 SWAP1 PUSH2 0x59E JUMP JUMPDEST PUSH2 0x2B1 JUMP JUMPDEST PUSH1 0x40 MLOAD PUSH2 0x95 SWAP2 SWAP1 PUSH2 0x5D8 JUMP JUMPDEST PUSH1 0x40 MLOAD DUP1 SWAP2 SUB SWAP1 RETURN JUMPDEST PUSH2 0xA6 PUSH2 0x2E9 JUMP JUMPDEST STOP JUMPDEST CALLVALUE DUP1 ISZERO PUSH2 0xB3 JUMPI PUSH0 DUP1 REVERT JUMPDEST POP PUSH2 0xBC PUSH2 0x417 JUMP JUMPDEST PUSH1 0x40 MLOAD PUSH2 0xC9 SWAP2 SWAP1 PUSH2 0x630 JUMP JUMPDEST PUSH1 0x40 MLOAD DUP1 SWAP2 SUB SWAP1 RETURN JUMPDEST CALLVALUE DUP1 ISZERO PUSH2 0xDD JUMPI PUSH0 DUP1 REVERT JUMPDEST POP PUSH2 0xE6 PUSH2 0x43A JUMP JUMPDEST PUSH1 0x40 MLOAD PUSH2 0xF3 SWAP2 SWAP1 PUSH2 0x5D8 JUMP JUMPDEST PUSH1 0x40 MLOAD DUP1 SWAP2 SUB SWAP1 RETURN JUMPDEST CALLVALUE DUP1 ISZERO PUSH2 0x107 JUMPI PUSH0 DUP1 REVERT JUMPDEST POP PUSH2 0x110 PUSH2 0x440 JUMP JUMPDEST PUSH1 0x40 MLOAD PUSH2 0x11D SWAP2 SWAP1 PUSH2 0x5D8 JUMP JUMPDEST PUSH1 0x40 MLOAD DUP1 SWAP2 SUB SWAP1 RETURN JUMPDEST PUSH0 PUSH2 0x12F PUSH2 0x523 JUMP JUMPDEST SWAP1 POP PUSH0 DUP2 GT PUSH2 0x175 JUMPI DUP1 PUSH1 0x40 MLOAD PUSH32 0x9266535100000000000000000000000000000000000000000000000000000000 DUP2 MSTORE PUSH1 0x4 ADD PUSH2 0x16C SWAP2 SWAP1 PUSH2 0x5D8 JUMP JUMPDEST PUSH1 0x40 MLOAD DUP1 SWAP2 SUB SWAP1 REVERT JUMPDEST PUSH0 PUSH1 0x1 PUSH0 CALLER PUSH20 0xFFFFFFFFFFFFFFFFFFFFFFFFFFFFFFFFFFFFFFFF AND PUSH20 0xFFFFFFFFFFFFFFFFFFFFFFFFFFFFFFFFFFFFFFFF AND DUP2 MSTORE PUSH1 0x20 ADD SWAP1 DUP2 MSTORE PUSH1 0x20 ADD PUSH0 KECCAK256 DUP2 SWAP1 SSTORE POP PUSH0 CALLER PUSH20 0xFFFFFFFFFFFFFFFFFFFFFFFFFFFFFFFFFFFFFFFF AND DUP3 PUSH1 0x40 MLOAD PUSH2 0x1DC SWAP1 PUSH2 0x676 JUMP JUMPDEST PUSH0 PUSH1 0x40 MLOAD DUP1 DUP4 SUB DUP2 DUP6 DUP8 GAS CALL SWAP3 POP POP POP RETURNDATASIZE DUP1 PUSH0 DUP2 EQ PUSH2 0x216 JUMPI PUSH1 0x40 MLOAD SWAP2 POP PUSH1 0x1F NOT PUSH1 0x3F RETURNDATASIZE ADD AND DUP3 ADD PUSH1 0x40 MSTORE RETURNDATASIZE DUP3 MSTORE RETURNDATASIZE PUSH0 PUSH1 0x20 DUP5 ADD RETURNDATACOPY PUSH2 0x21B JUMP JUMPDEST PUSH1 0x60 SWAP2 POP JUMPDEST POP POP SWAP1 POP DUP1 PUSH2 0x25F JUMPI PUSH1 0x40 MLOAD PUSH32 0x8C379A000000000000000000000000000000000000000000000000000000000 DUP2 MSTORE PUSH1 0x4 ADD PUSH2 0x256 SWAP1 PUSH2 0x6E4 JUMP JUMPDEST PUSH1 0x40 MLOAD DUP1 SWAP2 SUB SWAP1 REVERT JUMPDEST CALLER PUSH20 0xFFFFFFFFFFFFFFFFFFFFFFFFFFFFFFFFFFFFFFFF AND PUSH32 0x7FCF532C15F0A6DB0BD6D0E038BEA71D30D808C7D98CB3BF7268A95BF5081B65 DUP4 PUSH1 0x40 MLOAD PUSH2 0x2A5 SWAP2 SWAP1 PUSH2 0x5D8 JUMP JUMPDEST PUSH1 0x40 MLOAD DUP1 SWAP2 SUB SWAP1 LOG2 POP POP JUMP JUMPDEST PUSH0 DUP1 PUSH2 0x2BB PUSH2 0x440 JUMP JUMPDEST SWAP1 POP PUSH0 PUSH8 0xDE0B6B3A7640000 DUP5 DUP4 PUSH2 0x2D3 SWAP2 SWAP1 PUSH2 0x72F JUMP JUMPDEST PUSH2 0x2DD SWAP2 SWAP1 PUSH2 0x79D JUMP JUMPDEST SWAP1 POP DUP1 SWAP3 POP POP POP SWAP2 SWAP1 POP JUMP JUMPDEST PUSH0 CALLVALUE GT PUSH2 0x322 JUMPI PUSH1 0x40 MLOAD PUSH32 0xF9ACDC6100000000000000000000000000000000000000000000000000000000 DUP2 MSTORE PUSH1 0x4 ADD PUSH1 0x40 MLOAD DUP1 SWAP2 SUB SWAP1 REVERT JUMPDEST PUSH0 PUSH2 0x32C CALLVALUE PUSH2 0x2B1 JUMP JUMPDEST SWAP1 POP PUSH1 0x2 SLOAD DUP2 LT ISZERO PUSH2 0x373 JUMPI PUSH1 0x40 MLOAD PUSH32 0x8C379A000000000000000000000000000000000000000000000000000000000 DUP2 MSTORE PUSH1 0x4 ADD PUSH2 0x36A SWAP1 PUSH2 0x83D JUMP JUMPDEST PUSH1 0x40 MLOAD DUP1 SWAP2 SUB SWAP1 REVERT JUMPDEST CALLVALUE PUSH1 0x1 PUSH0 CALLER PUSH20 0xFFFFFFFFFFFFFFFFFFFFFFFFFFFFFFFFFFFFFFFF AND PUSH20 0xFFFFFFFFFFFFFFFFFFFFFFFFFFFFFFFFFFFFFFFF AND DUP2 MSTORE PUSH1 0x20 ADD SWAP1 DUP2 MSTORE PUSH1 0x20 ADD PUSH0 KECCAK256 PUSH0 DUP3 DUP3 SLOAD PUSH2 0x3BF SWAP2 SWAP1 PUSH2 0x85B JUMP JUMPDEST SWAP3 POP POP DUP2 SWAP1 SSTORE POP CALLER PUSH20 0xFFFFFFFFFFFFFFFFFFFFFFFFFFFFFFFFFFFFFFFF AND PUSH32 0xE1FFFCC4923D04B559F4D29A8BFC6CDA04EB5B0D3C460751C2402C5C5CC9109C CALLVALUE PUSH1 0x40 MLOAD PUSH2 0x40C SWAP2 SWAP1 PUSH2 0x5D8 JUMP JUMPDEST PUSH1 0x40 MLOAD DUP1 SWAP2 SUB SWAP1 LOG2 POP JUMP JUMPDEST PUSH0 DUP1 SLOAD SWAP1 PUSH2 0x100 EXP SWAP1 DIV PUSH20 0xFFFFFFFFFFFFFFFFFFFFFFFFFFFFFFFFFFFFFFFF AND DUP2 JUMP JUMPDEST PUSH1 0x2 SLOAD DUP2 JUMP JUMPDEST PUSH0 DUP1 PUSH20 0x694AA1769357215DE4FAC081BF1F309ADC325306 SWAP1 POP PUSH0 DUP2 PUSH20 0xFFFFFFFFFFFFFFFFFFFFFFFFFFFFFFFFFFFFFFFF AND PUSH4 0xFEAF968C PUSH1 0x40 MLOAD DUP2 PUSH4 0xFFFFFFFF AND PUSH1 0xE0 SHL DUP2 MSTORE PUSH1 0x4 ADD PUSH1 0xA0 PUSH1 0x40 MLOAD DUP1 DUP4 SUB DUP2 DUP7 GAS STATICCALL ISZERO DUP1 ISZERO PUSH2 0x4A3 JUMPI RETURNDATASIZE PUSH0 DUP1 RETURNDATACOPY RETURNDATASIZE PUSH0 REVERT JUMPDEST POP POP POP POP PUSH1 0x40 MLOAD RETURNDATASIZE PUSH1 0x1F NOT PUSH1 0x1F DUP3 ADD AND DUP3 ADD DUP1 PUSH1 0x40 MSTORE POP DUP2 ADD SWAP1 PUSH2 0x4C7 SWAP2 SWAP1 PUSH2 0x914 JUMP JUMPDEST POP POP POP SWAP2 POP POP PUSH0 DUP2 SGT PUSH2 0x506 JUMPI PUSH1 0x40 MLOAD PUSH32 0xEB713CF200000000000000000000000000000000000000000000000000000000 DUP2 MSTORE PUSH1 0x4 ADD PUSH1 0x40 MLOAD DUP1 SWAP2 SUB SWAP1 REVERT JUMPDEST PUSH0 PUSH5 0x2540BE400 DUP3 PUSH2 0x518 SWAP2 SWAP1 PUSH2 0x72F JUMP JUMPDEST SWAP1 POP DUP1 SWAP4 POP POP POP POP SWAP1 JUMP JUMPDEST PUSH0 PUSH1 0x1 PUSH0 CALLER PUSH20 0xFFFFFFFFFFFFFFFFFFFFFFFFFFFFFFFFFFFFFFFF AND PUSH20 0xFFFFFFFFFFFFFFFFFFFFFFFFFFFFFFFFFFFFFFFF AND DUP2 MSTORE PUSH1 0x20 ADD SWAP1 DUP2 MSTORE PUSH1 0x20 ADD PUSH0 KECCAK256 SLOAD SWAP1 POP SWAP1 JUMP JUMPDEST PUSH0 DUP1 REVERT JUMPDEST PUSH0 DUP2 SWAP1 POP SWAP2 SWAP1 POP JUMP JUMPDEST PUSH2 0x57D DUP2 PUSH2 0x56B JUMP JUMPDEST DUP2 EQ PUSH2 0x587 JUMPI PUSH0 DUP1 REVERT JUMPDEST POP JUMP JUMPDEST PUSH0 DUP2 CALLDATALOAD SWAP1 POP PUSH2 0x598 DUP2 PUSH2 0x574 JUMP JUMPDEST SWAP3 SWAP2 POP POP JUMP JUMPDEST PUSH0 PUSH1 0x20 DUP3 DUP5 SUB SLT ISZERO PUSH2 0x5B3 JUMPI PUSH2 0x5B2 PUSH2 0x567 JUMP JUMPDEST JUMPDEST PUSH0 PUSH2 0x5C0 DUP5 DUP3 DUP6 ADD PUSH2 0x58A JUMP JUMPDEST SWAP2 POP POP SWAP3 SWAP2 POP POP JUMP JUMPDEST PUSH2 0x5D2 DUP2 PUSH2 0x56B JUMP JUMPDEST DUP3 MSTORE POP POP JUMP JUMPDEST PUSH0 PUSH1 0x20 DUP3 ADD SWAP1 POP PUSH2 0x5EB PUSH0 DUP4 ADD DUP5 PUSH2 0x5C9 JUMP JUMPDEST SWAP3 SWAP2 POP POP JUMP JUMPDEST PUSH0 PUSH20 0xFFFFFFFFFFFFFFFFFFFFFFFFFFFFFFFFFFFFFFFF DUP3 AND SWAP1 POP SWAP2 SWAP1 POP JUMP JUMPDEST PUSH0 PUSH2 0x61A DUP3 PUSH2 0x5F1 JUMP JUMPDEST SWAP1 POP SWAP2 SWAP1 POP JUMP JUMPDEST PUSH2 0x62A DUP2 PUSH2 0x610 JUMP JUMPDEST DUP3 MSTORE POP POP JUMP JUMPDEST PUSH0 PUSH1 0x20 DUP3 ADD SWAP1 POP PUSH2 0x643 PUSH0 DUP4 ADD DUP5 PUSH2 0x621 JUMP JUMPDEST SWAP3 SWAP2 POP POP JUMP JUMPDEST PUSH0 DUP2 SWAP1 POP SWAP3 SWAP2 POP POP JUMP JUMPDEST POP JUMP JUMPDEST PUSH0 PUSH2 0x661 PUSH0 DUP4 PUSH2 0x649 JUMP JUMPDEST SWAP2 POP PUSH2 0x66C DUP3 PUSH2 0x653 JUMP JUMPDEST PUSH0 DUP3 ADD SWAP1 POP SWAP2 SWAP1 POP JUMP JUMPDEST PUSH0 PUSH2 0x680 DUP3 PUSH2 0x656 JUMP JUMPDEST SWAP2 POP DUP2 SWAP1 POP SWAP2 SWAP1 POP JUMP JUMPDEST PUSH0 DUP3 DUP3 MSTORE PUSH1 0x20 DUP3 ADD SWAP1 POP SWAP3 SWAP2 POP POP JUMP JUMPDEST PUSH32 0x5769746864726177616C206661696C6564000000000000000000000000000000 PUSH0 DUP3 ADD MSTORE POP JUMP JUMPDEST PUSH0 PUSH2 0x6CE PUSH1 0x11 DUP4 PUSH2 0x68A JUMP JUMPDEST SWAP2 POP PUSH2 0x6D9 DUP3 PUSH2 0x69A JUMP JUMPDEST PUSH1 0x20 DUP3 ADD SWAP1 POP SWAP2 SWAP1 POP JUMP JUMPDEST PUSH0 PUSH1 0x20 DUP3 ADD SWAP1 POP DUP2 DUP2 SUB PUSH0 DUP4 ADD MSTORE PUSH2 0x6FB DUP2 PUSH2 0x6C2 JUMP JUMPDEST SWAP1 POP SWAP2 SWAP1 POP JUMP JUMPDEST PUSH32 0x4E487B7100000000000000000000000000000000000000000000000000000000 PUSH0 MSTORE PUSH1 0x11 PUSH1 0x4 MSTORE PUSH1 0x24 PUSH0 REVERT JUMPDEST PUSH0 PUSH2 0x739 DUP3 PUSH2 0x56B JUMP JUMPDEST SWAP2 POP PUSH2 0x744 DUP4 PUSH2 0x56B JUMP JUMPDEST SWAP3 POP DUP3 DUP3 MUL PUSH2 0x752 DUP2 PUSH2 0x56B JUMP JUMPDEST SWAP2 POP DUP3 DUP3 DIV DUP5 EQ DUP4 ISZERO OR PUSH2 0x769 JUMPI PUSH2 0x768 PUSH2 0x702 JUMP JUMPDEST JUMPDEST POP SWAP3 SWAP2 POP POP JUMP JUMPDEST PUSH32 0x4E487B7100000000000000000000000000000000000000000000000000000000 PUSH0 MSTORE PUSH1 0x12 PUSH1 0x4 MSTORE PUSH1 0x24 PUSH0 REVERT JUMPDEST PUSH0 PUSH2 0x7A7 DUP3 PUSH2 0x56B JUMP JUMPDEST SWAP2 POP PUSH2 0x7B2 DUP4 PUSH2 0x56B JUMP JUMPDEST SWAP3 POP DUP3 PUSH2 0x7C2 JUMPI PUSH2 0x7C1 PUSH2 0x770 JUMP JUMPDEST JUMPDEST DUP3 DUP3 DIV SWAP1 POP SWAP3 SWAP2 POP POP JUMP JUMPDEST PUSH32 0x4465706F736974206D757374206265206174206C6561737420243120776F7274 PUSH0 DUP3 ADD MSTORE PUSH32 0x68206F66204554482E0000000000000000000000000000000000000000000000 PUSH1 0x20 DUP3 ADD MSTORE POP JUMP JUMPDEST PUSH0 PUSH2 0x827 PUSH1 0x29 DUP4 PUSH2 0x68A JUMP JUMPDEST SWAP2 POP PUSH2 0x832 DUP3 PUSH2 0x7CD JUMP JUMPDEST PUSH1 0x40 DUP3 ADD SWAP1 POP SWAP2 SWAP1 POP JUMP JUMPDEST PUSH0 PUSH1 0x20 DUP3 ADD SWAP1 POP DUP2 DUP2 SUB PUSH0 DUP4 ADD MSTORE PUSH2 0x854 DUP2 PUSH2 0x81B JUMP JUMPDEST SWAP1 POP SWAP2 SWAP1 POP JUMP JUMPDEST PUSH0 PUSH2 0x865 DUP3 PUSH2 0x56B JUMP JUMPDEST SWAP2 POP PUSH2 0x870 DUP4 PUSH2 0x56B JUMP JUMPDEST SWAP3 POP DUP3 DUP3 ADD SWAP1 POP DUP1 DUP3 GT ISZERO PUSH2 0x888 JUMPI PUSH2 0x887 PUSH2 0x702 JUMP JUMPDEST JUMPDEST SWAP3 SWAP2 POP POP JUMP JUMPDEST PUSH0 PUSH10 0xFFFFFFFFFFFFFFFFFFFF DUP3 AND SWAP1 POP SWAP2 SWAP1 POP JUMP JUMPDEST PUSH2 0x8AC DUP2 PUSH2 0x88E JUMP JUMPDEST DUP2 EQ PUSH2 0x8B6 JUMPI PUSH0 DUP1 REVERT JUMPDEST POP JUMP JUMPDEST PUSH0 DUP2 MLOAD SWAP1 POP PUSH2 0x8C7 DUP2 PUSH2 0x8A3 JUMP JUMPDEST SWAP3 SWAP2 POP POP JUMP JUMPDEST PUSH0 DUP2 SWAP1 POP SWAP2 SWAP1 POP JUMP JUMPDEST PUSH2 0x8DF DUP2 PUSH2 0x8CD JUMP JUMPDEST DUP2 EQ PUSH2 0x8E9 JUMPI PUSH0 DUP1 REVERT JUMPDEST POP JUMP JUMPDEST PUSH0 DUP2 MLOAD SWAP1 POP PUSH2 0x8FA DUP2 PUSH2 0x8D6 JUMP JUMPDEST SWAP3 SWAP2 POP POP JUMP JUMPDEST PUSH0 DUP2 MLOAD SWAP1 POP PUSH2 0x90E DUP2 PUSH2 0x574 JUMP JUMPDEST SWAP3 SWAP2 POP POP JUMP JUMPDEST PUSH0 DUP1 PUSH0 DUP1 PUSH0 PUSH1 0xA0 DUP7 DUP9 SUB SLT ISZERO PUSH2 0x92D JUMPI PUSH2 0x92C PUSH2 0x567 JUMP JUMPDEST JUMPDEST PUSH0 PUSH2 0x93A DUP9 DUP3 DUP10 ADD PUSH2 0x8B9 JUMP JUMPDEST SWAP6 POP POP PUSH1 0x20 PUSH2 0x94B DUP9 DUP3 DUP10 ADD PUSH2 0x8EC JUMP JUMPDEST SWAP5 POP POP PUSH1 0x40 PUSH2 0x95C DUP9 DUP3 DUP10 ADD PUSH2 0x900 JUMP JUMPDEST SWAP4 POP POP PUSH1 0x60 PUSH2 0x96D DUP9 DUP3 DUP10 ADD PUSH2 0x900 JUMP JUMPDEST SWAP3 POP POP PUSH1 0x80 PUSH2 0x97E DUP9 DUP3 DUP10 ADD PUSH2 0x8B9 JUMP JUMPDEST SWAP2 POP POP SWAP3 SWAP6 POP SWAP3 SWAP6 SWAP1 SWAP4 POP JUMP INVALID LOG2 PUSH5 0x6970667358 0x22 SLT KECCAK256 0xB6 TSTORE PUSH15 0x8D7D41EE1D8A0CB70F1698CC946FDB SELFDESTRUCT 0xAF PUSH20 0xC49BBE98914FB76CDC682C64736F6C634300081A STOP CALLER "
				},
				"gasEstimates": {
					"creation": {
						"codeDepositCost": "499400",
						"executionCost": "46906",
						"totalCost": "546306"
					},
					"external": {
						"deposit()": "infinite",
						"getConvertionRate(uint256)": "infinite",
						"getPriceETH_USD()": "infinite",
						"i_owner()": "2549",
						"minUSD()": "2491",
						"withdraw()": "infinite"
					},
					"internal": {
						"checkBalance()": "2215",
						"checkBalanceWithAddress(address)": "infinite"
					}
				},
				"methodIdentifiers": {
					"deposit()": "d0e30db0",
					"getConvertionRate(uint256)": "3e8cdcda",
					"getPriceETH_USD()": "e1d1f81b",
					"i_owner()": "dba6335f",
					"minUSD()": "dc992aa0",
					"withdraw()": "3ccfd60b"
				}
			},
			"storageLayout": {
				"storage": [
					{
						"astId": 61,
						"contract": "contracts/Vault.sol:Vault",
						"label": "i_owner",
						"offset": 0,
						"slot": "0",
						"type": "t_address"
					},
					{
						"astId": 74,
						"contract": "contracts/Vault.sol:Vault",
						"label": "balances",
						"offset": 0,
						"slot": "1",
						"type": "t_mapping(t_address,t_uint256)"
					},
					{
						"astId": 79,
						"contract": "contracts/Vault.sol:Vault",
						"label": "minUSD",
						"offset": 0,
						"slot": "2",
						"type": "t_uint256"
					}
				],
				"types": {
					"t_address": {
						"encoding": "inplace",
						"label": "address",
						"numberOfBytes": "20"
					},
					"t_mapping(t_address,t_uint256)": {
						"encoding": "mapping",
						"key": "t_address",
						"label": "mapping(address => uint256)",
						"numberOfBytes": "32",
						"value": "t_uint256"
					},
					"t_uint256": {
						"encoding": "inplace",
						"label": "uint256",
						"numberOfBytes": "32"
					}
				}
			},
			"userdoc": {
				"kind": "user",
				"methods": {},
				"version": 1
			}
		}
	}
}